:100000000C9434000C943E000C943E000C943E0082
:100010000C943E000C943E000C943E000C943E0068
:100020000C943E000C943E000C943E000C943E0058
:100030000C943E000C943E000C943E000C943E0048
:100040000C943E000C943E000C943E000C943E0038
:100050000C943E000C943E000C943E000C943E0028
:100060000C943E000C943E0011241FBECFEFD8E04C
:10007000DEBFCDBF0E9440000C945C000C940000D9
:100080008AB11AB8259A89B129B139B159B149B1A2
:10009000982F947082FF0EC0922F987023FF0AC091
:1000A00046FF07C0932F907134FF04C0952F9072C4
:0C00B00055FD90E295B9E7CFF894FFCF22
:00000001FF
